{
  "_format": "hh-sol-artifact-1",
  "contractName": "SnakeGame",
  "sourceName": "contracts/SnakeGameContract.sol",
  "abi": [
    {
      "inputs": [
        {
          "internalType": "address",
          "name": "_monToken",
          "type": "address"
        }
      ],
      "stateMutability": "nonpayable",
      "type": "constructor"
    },
    {
      "inputs": [
        {
          "internalType": "address",
          "name": "sender",
          "type": "address"
        },
        {
          "internalType": "uint256",
          "name": "tokenId",
          "type": "uint256"
        },
        {
          "internalType": "address",
          "name": "owner",
          "type": "address"
        }
      ],
      "name": "ERC721IncorrectOwner",
      "type": "error"
    },
    {
      "inputs": [
        {
          "internalType": "address",
          "name": "operator",
          "type": "address"
        },
        {
          "internalType": "uint256",
          "name": "tokenId",
          "type": "uint256"
        }
      ],
      "name": "ERC721InsufficientApproval",
      "type": "error"
    },
    {
      "inputs": [
        {
          "internalType": "address",
          "name": "approver",
          "type": "address"
        }
      ],
      "name": "ERC721InvalidApprover",
      "type": "error"
    },
    {
      "inputs": [
        {
          "internalType": "address",
          "name": "operator",
          "type": "address"
        }
      ],
      "name": "ERC721InvalidOperator",
      "type": "error"
    },
    {
      "inputs": [
        {
          "internalType": "address",
          "name": "owner",
          "type": "address"
        }
      ],
      "name": "ERC721InvalidOwner",
      "type": "error"
    },
    {
      "inputs": [
        {
          "internalType": "address",
          "name": "receiver",
          "type": "address"
        }
      ],
      "name": "ERC721InvalidReceiver",
      "type": "error"
    },
    {
      "inputs": [
        {
          "internalType": "address",
          "name": "sender",
          "type": "address"
        }
      ],
      "name": "ERC721InvalidSender",
      "type": "error"
    },
    {
      "inputs": [
        {
          "internalType": "uint256",
          "name": "tokenId",
          "type": "uint256"
        }
      ],
      "name": "ERC721NonexistentToken",
      "type": "error"
    },
    {
      "inputs": [
        {
          "internalType": "address",
          "name": "owner",
          "type": "address"
        }
      ],
      "name": "OwnableInvalidOwner",
      "type": "error"
    },
    {
      "inputs": [
        {
          "internalType": "address",
          "name": "account",
          "type": "address"
        }
      ],
      "name": "OwnableUnauthorizedAccount",
      "type": "error"
    },
    {
      "anonymous": false,
      "inputs": [
        {
          "indexed": true,
          "internalType": "address",
          "name": "owner",
          "type": "address"
        },
        {
          "indexed": true,
          "internalType": "address",
          "name": "approved",
          "type": "address"
        },
        {
          "indexed": true,
          "internalType": "uint256",
          "name": "tokenId",
          "type": "uint256"
        }
      ],
      "name": "Approval",
      "type": "event"
    },
    {
      "anonymous": false,
      "inputs": [
        {
          "indexed": true,
          "internalType": "address",
          "name": "owner",
          "type": "address"
        },
        {
          "indexed": true,
          "internalType": "address",
          "name": "operator",
          "type": "address"
        },
        {
          "indexed": false,
          "internalType": "bool",
          "name": "approved",
          "type": "bool"
        }
      ],
      "name": "ApprovalForAll",
      "type": "event"
    },
    {
      "anonymous": false,
      "inputs": [
        {
          "indexed": false,
          "internalType": "uint256",
          "name": "_fromTokenId",
          "type": "uint256"
        },
        {
          "indexed": false,
          "internalType": "uint256",
          "name": "_toTokenId",
          "type": "uint256"
        }
      ],
      "name": "BatchMetadataUpdate",
      "type": "event"
    },
    {
      "anonymous": false,
      "inputs": [
        {
          "indexed": false,
          "internalType": "uint256",
          "name": "_tokenId",
          "type": "uint256"
        }
      ],
      "name": "MetadataUpdate",
      "type": "event"
    },
    {
      "anonymous": false,
      "inputs": [
        {
          "indexed": true,
          "internalType": "address",
          "name": "previousOwner",
          "type": "address"
        },
        {
          "indexed": true,
          "internalType": "address",
          "name": "newOwner",
          "type": "address"
        }
      ],
      "name": "OwnershipTransferred",
      "type": "event"
    },
    {
      "anonymous": false,
      "inputs": [
        {
          "indexed": true,
          "internalType": "address",
          "name": "player",
          "type": "address"
        },
        {
          "indexed": false,
          "internalType": "uint256",
          "name": "score",
          "type": "uint256"
        },
        {
          "indexed": false,
          "internalType": "bool",
          "name": "earnedReward",
          "type": "bool"
        },
        {
          "indexed": false,
          "internalType": "bool",
          "name": "mintedNFT",
          "type": "bool"
        }
      ],
      "name": "ScoreSubmitted",
      "type": "event"
    },
    {
      "anonymous": false,
      "inputs": [
        {
          "indexed": true,
          "internalType": "address",
          "name": "from",
          "type": "address"
        },
        {
          "indexed": true,
          "internalType": "address",
          "name": "to",
          "type": "address"
        },
        {
          "indexed": true,
          "internalType": "uint256",
          "name": "tokenId",
          "type": "uint256"
        }
      ],
      "name": "Transfer",
      "type": "event"
    },
    {
      "inputs": [
        {
          "internalType": "address",
          "name": "to",
          "type": "address"
        },
        {
          "internalType": "uint256",
          "name": "tokenId",
          "type": "uint256"
        }
      ],
      "name": "approve",
      "outputs": [],
      "stateMutability": "nonpayable",
      "type": "function"
    },
    {
      "inputs": [
        {
          "internalType": "address",
          "name": "owner",
          "type": "address"
        }
      ],
      "name": "balanceOf",
      "outputs": [
        {
          "internalType": "uint256",
          "name": "",
          "type": "uint256"
        }
      ],
      "stateMutability": "view",
      "type": "function"
    },
    {
      "inputs": [
        {
          "internalType": "uint256",
          "name": "amount",
          "type": "uint256"
        }
      ],
      "name": "depositRewards",
      "outputs": [],
      "stateMutability": "nonpayable",
      "type": "function"
    },
    {
      "inputs": [
        {
          "internalType": "uint256",
          "name": "tokenId",
          "type": "uint256"
        }
      ],
      "name": "getApproved",
      "outputs": [
        {
          "internalType": "address",
          "name": "",
          "type": "address"
        }
      ],
      "stateMutability": "view",
      "type": "function"
    },
    {
      "inputs": [
        {
          "internalType": "address",
          "name": "player",
          "type": "address"
        }
      ],
      "name": "getHighScore",
      "outputs": [
        {
          "internalType": "uint256",
          "name": "",
          "type": "uint256"
        }
      ],
      "stateMutability": "view",
      "type": "function"
    },
    {
      "inputs": [
        {
          "internalType": "address",
          "name": "player",
          "type": "address"
        }
      ],
      "name": "hasPlayerReceivedNFT",
      "outputs": [
        {
          "internalType": "bool",
          "name": "",
          "type": "bool"
        }
      ],
      "stateMutability": "view",
      "type": "function"
    },
    {
      "inputs": [
        {
          "internalType": "address",
          "name": "",
          "type": "address"
        }
      ],
      "name": "highScores",
      "outputs": [
        {
          "internalType": "uint256",
          "name": "",
          "type": "uint256"
        }
      ],
      "stateMutability": "view",
      "type": "function"
    },
    {
      "inputs": [
        {
          "internalType": "address",
          "name": "owner",
          "type": "address"
        },
        {
          "internalType": "address",
          "name": "operator",
          "type": "address"
        }
      ],
      "name": "isApprovedForAll",
      "outputs": [
        {
          "internalType": "bool",
          "name": "",
          "type": "bool"
        }
      ],
      "stateMutability": "view",
      "type": "function"
    },
    {
      "inputs": [],
      "name": "monToken",
      "outputs": [
        {
          "internalType": "contract IERC20",
          "name": "",
          "type": "address"
        }
      ],
      "stateMutability": "view",
      "type": "function"
    },
    {
      "inputs": [],
      "name": "name",
      "outputs": [
        {
          "internalType": "string",
          "name": "",
          "type": "string"
        }
      ],
      "stateMutability": "view",
      "type": "function"
    },
    {
      "inputs": [],
      "name": "nftCounter",
      "outputs": [
        {
          "internalType": "uint256",
          "name": "",
          "type": "uint256"
        }
      ],
      "stateMutability": "view",
      "type": "function"
    },
    {
      "inputs": [],
      "name": "owner",
      "outputs": [
        {
          "internalType": "address",
          "name": "",
          "type": "address"
        }
      ],
      "stateMutability": "view",
      "type": "function"
    },
    {
      "inputs": [
        {
          "internalType": "uint256",
          "name": "tokenId",
          "type": "uint256"
        }
      ],
      "name": "ownerOf",
      "outputs": [
        {
          "internalType": "address",
          "name": "",
          "type": "address"
        }
      ],
      "stateMutability": "view",
      "type": "function"
    },
    {
      "inputs": [],
      "name": "renounceOwnership",
      "outputs": [],
      "stateMutability": "nonpayable",
      "type": "function"
    },
    {
      "inputs": [],
      "name": "rewardAmount",
      "outputs": [
        {
          "internalType": "uint256",
          "name": "",
          "type": "uint256"
        }
      ],
      "stateMutability": "view",
      "type": "function"
    },
    {
      "inputs": [],
      "name": "rewardThreshold",
      "outputs": [
        {
          "internalType": "uint256",
          "name": "",
          "type": "uint256"
        }
      ],
      "stateMutability": "view",
      "type": "function"
    },
    {
      "inputs": [
        {
          "internalType": "address",
          "name": "from",
          "type": "address"
        },
        {
          "internalType": "address",
          "name": "to",
          "type": "address"
        },
        {
          "internalType": "uint256",
          "name": "tokenId",
          "type": "uint256"
        }
      ],
      "name": "safeTransferFrom",
      "outputs": [],
      "stateMutability": "nonpayable",
      "type": "function"
    },
    {
      "inputs": [
        {
          "internalType": "address",
          "name": "from",
          "type": "address"
        },
        {
          "internalType": "address",
          "name": "to",
          "type": "address"
        },
        {
          "internalType": "uint256",
          "name": "tokenId",
          "type": "uint256"
        },
        {
          "internalType": "bytes",
          "name": "data",
          "type": "bytes"
        }
      ],
      "name": "safeTransferFrom",
      "outputs": [],
      "stateMutability": "nonpayable",
      "type": "function"
    },
    {
      "inputs": [
        {
          "internalType": "address",
          "name": "operator",
          "type": "address"
        },
        {
          "internalType": "bool",
          "name": "approved",
          "type": "bool"
        }
      ],
      "name": "setApprovalForAll",
      "outputs": [],
      "stateMutability": "nonpayable",
      "type": "function"
    },
    {
      "inputs": [
        {
          "internalType": "uint256",
          "name": "_threshold",
          "type": "uint256"
        },
        {
          "internalType": "uint256",
          "name": "_amount",
          "type": "uint256"
        }
      ],
      "name": "setReward",
      "outputs": [],
      "stateMutability": "nonpayable",
      "type": "function"
    },
    {
      "inputs": [],
      "name": "startGame",
      "outputs": [],
      "stateMutability": "nonpayable",
      "type": "function"
    },
    {
      "inputs": [
        {
          "internalType": "uint256",
          "name": "score",
          "type": "uint256"
        }
      ],
      "name": "submitScore",
      "outputs": [],
      "stateMutability": "nonpayable",
      "type": "function"
    },
    {
      "inputs": [
        {
          "internalType": "bytes4",
          "name": "interfaceId",
          "type": "bytes4"
        }
      ],
      "name": "supportsInterface",
      "outputs": [
        {
          "internalType": "bool",
          "name": "",
          "type": "bool"
        }
      ],
      "stateMutability": "view",
      "type": "function"
    },
    {
      "inputs": [],
      "name": "symbol",
      "outputs": [
        {
          "internalType": "string",
          "name": "",
          "type": "string"
        }
      ],
      "stateMutability": "view",
      "type": "function"
    },
    {
      "inputs": [
        {
          "internalType": "uint256",
          "name": "tokenId",
          "type": "uint256"
        }
      ],
      "name": "tokenURI",
      "outputs": [
        {
          "internalType": "string",
          "name": "",
          "type": "string"
        }
      ],
      "stateMutability": "view",
      "type": "function"
    },
    {
      "inputs": [
        {
          "internalType": "address",
          "name": "from",
          "type": "address"
        },
        {
          "internalType": "address",
          "name": "to",
          "type": "address"
        },
        {
          "internalType": "uint256",
          "name": "tokenId",
          "type": "uint256"
        }
      ],
      "name": "transferFrom",
      "outputs": [],
      "stateMutability": "nonpayable",
      "type": "function"
    },
    {
      "inputs": [
        {
          "internalType": "address",
          "name": "newOwner",
          "type": "address"
        }
      ],
      "name": "transferOwnership",
      "outputs": [],
      "stateMutability": "nonpayable",
      "type": "function"
    },
    {
      "inputs": [
        {
          "internalType": "uint256",
          "name": "score",
          "type": "uint256"
        }
      ],
      "name": "updateScore",
      "outputs": [],
      "stateMutability": "nonpayable",
      "type": "function"
    }
  ],
  "bytecode": "0x60806040526032600a55670de0b6b3a7640000600b553480156200002257600080fd5b5060405162001c9038038062001c90833981016040819052620000459162000159565b336040518060400160405280600881526020016714db985ad953919560c21b81525060405180604001604052806003815260200162534e4b60e81b815250816000908162000094919062000230565b506001620000a3828262000230565b5050506001600160a01b038116620000d557604051631e4fbdf760e01b81526000600482015260240160405180910390fd5b620000e08162000107565b50600880546001600160a01b0319166001600160a01b0392909216919091179055620002fc565b600780546001600160a01b038381166001600160a01b0319831681179093556040519116919082907f8be0079c531659141344cd1fd0a4f28419497f9722a3daafe3b4186f6b6457e090600090a35050565b6000602082840312156200016c57600080fd5b81516001600160a01b03811681146200018457600080fd5b9392505050565b634e487b7160e01b600052604160045260246000fd5b600181811c90821680620001b657607f821691505b602082108103620001d757634e487b7160e01b600052602260045260246000fd5b50919050565b601f8211156200022b57600081815260208120601f850160051c81016020861015620002065750805b601f850160051c820191505b81811015620002275782815560010162000212565b5050505b505050565b81516001600160401b038111156200024c576200024c6200018b565b62000264816200025d8454620001a1565b84620001dd565b602080601f8311600181146200029c5760008415620002835750858301515b600019600386901b1c1916600185901b17855562000227565b600085815260208120601f198616915b82811015620002cd57888601518255948401946001909101908401620002ac565b5085821015620002ec5787850151600019600388901b60f8161c191681555b5050505050600190811b01905550565b611984806200030c6000396000f3fe608060405234801561001057600080fd5b50600436106101c35760003560e01c80638bdf67f2116100f9578063c87b56dd11610097578063e985e9c511610071578063e985e9c5146103b3578063f2fde38b146103c6578063f7b2a7be146103d9578063f853e34d146103e257600080fd5b8063c87b56dd14610397578063d65ab5f214610271578063e574609e146103aa57600080fd5b8063a22cb465116100d3578063a22cb4651461034b578063a47bd4961461035e578063aff0b29714610371578063b88d4fde1461038457600080fd5b80638bdf67f21461031f5780638da5cb5b1461033257806395d89b411461034357600080fd5b806342842e0e116101665780636352211e116101405780636352211e146102de57806363eb9f90146102f157806370a0823114610304578063715018a61461031757600080fd5b806342842e0e1461029957806357171a48146102ac5780635ea4d29c146102d557600080fd5b8063081812fc116101a2578063081812fc14610233578063095ea7b31461025e57806317fdf8491461027357806323b872dd1461028657600080fd5b8062d8e104146101c857806301ffc9a7146101fb57806306fdde031461021e575b600080fd5b6101e86101d636600461144b565b600c6020526000908152604090205481565b6040519081526020015b60405180910390f35b61020e61020936600461147c565b6103f5565b60405190151581526020016101f2565b610226610420565b6040516101f291906114e9565b6102466102413660046114fc565b6104b2565b6040516001600160a01b0390911681526020016101f2565b61027161026c366004611515565b6104db565b005b61020e61028136600461144b565b6104ea565b61027161029436600461153f565b6104fd565b6102716102a736600461153f565b61058d565b6101e86102ba36600461144b565b6001600160a01b03166000908152600c602052604090205490565b6101e8600a5481565b6102466102ec3660046114fc565b6105ad565b600854610246906001600160a01b031681565b6101e861031236600461144b565b6105b8565b610271610600565b61027161032d3660046114fc565b610614565b6007546001600160a01b0316610246565b61022661068f565b610271610359366004611589565b61069e565b61027161036c3660046115c0565b6106a9565b61027161037f3660046114fc565b6106bc565b6102716103923660046115f8565b6108b5565b6102266103a53660046114fc565b6108cd565b6101e860095481565b61020e6103c13660046116d4565b6109de565b6102716103d436600461144b565b610a0c565b6101e8600b5481565b6102716103f03660046114fc565b610a4a565b60006001600160e01b03198216632483248360e11b148061041a575061041a82610bf5565b92915050565b60606000805461042f90611707565b80601f016020809104026020016040519081016040528092919081815260200182805461045b90611707565b80156104a85780601f1061047d576101008083540402835291602001916104a8565b820191906000526020600020905b81548152906001019060200180831161048b57829003601f168201915b5050505050905090565b60006104bd82610c45565b506000828152600460205260409020546001600160a01b031661041a565b6104e6828233610c7e565b5050565b6000806104f6836105b8565b1192915050565b6001600160a01b03821661052c57604051633250574960e11b8152600060048201526024015b60405180910390fd5b6000610539838333610c8b565b9050836001600160a01b0316816001600160a01b031614610587576040516364283d7b60e01b81526001600160a01b0380861660048301526024820184905282166044820152606401610523565b50505050565b6105a8838383604051806020016040528060008152506108b5565b505050565b600061041a82610c45565b60006001600160a01b0382166105e4576040516322718ad960e21b815260006004820152602401610523565b506001600160a01b031660009081526003602052604090205490565b610608610d84565b6106126000610db1565b565b6008546040516323b872dd60e01b8152336004820152306024820152604481018390526001600160a01b03909116906323b872dd906064016020604051808303816000875af115801561066b573d6000803e3d6000fd5b505050506040513d601f19601f820116820180604052508101906104e69190611741565b60606001805461042f90611707565b6104e6338383610e03565b6106b1610d84565b600a91909155600b55565b336000908152600c60205260409020548111156106e657336000908152600c602052604090208190555b6000600a54821061082857600b546008546040516370a0823160e01b81523060048201526001600160a01b03909116906370a0823190602401602060405180830381865afa15801561073c573d6000803e3d6000fd5b505050506040513d601f19601f82011682018060405250810190610760919061175e565b10156107a95760405162461bcd60e51b81526020600482015260186024820152774e6f7420656e6f7567682072657761726420746f6b656e7360401b6044820152606401610523565b600854600b5460405163a9059cbb60e01b815233600482015260248101919091526001600160a01b039091169063a9059cbb906044016020604051808303816000875af11580156107fe573d6000803e3d6000fd5b505050506040513d601f19601f820116820180604052508101906108229190611741565b50600190505b6009805490600061083883611777565b919050555061084933600954610ea2565b61086d60095460405180606001604052806021815260200161192e60219139610f07565b604080518381528215156020820152600181830152905133917fd3029bd92c09977d84fbb69bc86b7145b63ac29c966191d5934e807a3c3c8f10919081900360600190a25050565b6108c08484846104fd565b6105873385858585610f57565b60606108d882610c45565b50600082815260066020526040812080546108f290611707565b80601f016020809104026020016040519081016040528092919081815260200182805461091e90611707565b801561096b5780601f106109405761010080835404028352916020019161096b565b820191906000526020600020905b81548152906001019060200180831161094e57829003601f168201915b50505050509050600061098960408051602081019091526000815290565b9050805160000361099b575092915050565b8151156109cd5780826040516020016109b592919061179e565b60405160208183030381529060405292505050919050565b6109d684611082565b949350505050565b6001600160a01b03918216600090815260056020908152604080832093909416825291909152205460ff1690565b610a14610d84565b6001600160a01b038116610a3e57604051631e4fbdf760e01b815260006004820152602401610523565b610a4781610db1565b50565b336000908152600c6020526040902054811115610a7457336000908152600c602052604090208190555b600a548110610bb057600b546008546040516370a0823160e01b81523060048201526001600160a01b03909116906370a0823190602401602060405180830381865afa158015610ac8573d6000803e3d6000fd5b505050506040513d601f19601f82011682018060405250810190610aec919061175e565b1015610b355760405162461bcd60e51b81526020600482015260186024820152774e6f7420656e6f7567682072657761726420746f6b656e7360401b6044820152606401610523565b600854600b5460405163a9059cbb60e01b815233600482015260248101919091526001600160a01b039091169063a9059cbb906044016020604051808303816000875af1158015610b8a573d6000803e3d6000fd5b505050506040513d601f19601f82011682018060405250810190610bae9190611741565b505b60098054906000610bc083611777565b9190505550610bd133600954610ea2565b610a4760095460405180606001604052806021815260200161192e60219139610f07565b60006001600160e01b031982166380ac58cd60e01b1480610c2657506001600160e01b03198216635b5e139f60e01b145b8061041a57506301ffc9a760e01b6001600160e01b031983161461041a565b6000818152600260205260408120546001600160a01b03168061041a57604051637e27328960e01b815260048101849052602401610523565b6105a883838360016110f7565b6000828152600260205260408120546001600160a01b0390811690831615610cb857610cb88184866111fd565b6001600160a01b03811615610cf657610cd56000856000806110f7565b6001600160a01b038116600090815260036020526040902080546000190190555b6001600160a01b03851615610d25576001600160a01b0385166000908152600360205260409020805460010190555b60008481526002602052604080822080546001600160a01b0319166001600160a01b0389811691821790925591518793918516917fddf252ad1be2c89b69c2b068fc378daa952ba7f163c4a11628f55a4df523b3ef91a4949350505050565b6007546001600160a01b031633146106125760405163118cdaa760e01b8152336004820152602401610523565b600780546001600160a01b038381166001600160a01b0319831681179093556040519116919082907f8be0079c531659141344cd1fd0a4f28419497f9722a3daafe3b4186f6b6457e090600090a35050565b6001600160a01b038216610e3557604051630b61174360e31b81526001600160a01b0383166004820152602401610523565b6001600160a01b03838116600081815260056020908152604080832094871680845294825291829020805460ff191686151590811790915591519182527f17307eab39ab6107e8899845ad3d59bd9653f200f220920489ca2b5937696c31910160405180910390a3505050565b6001600160a01b038216610ecc57604051633250574960e11b815260006004820152602401610523565b6000610eda83836000610c8b565b90506001600160a01b038116156105a8576040516339e3563760e11b815260006004820152602401610523565b6000828152600660205260409020610f1f8282611813565b506040518281527ff8e1a15aba9398e019f0b49df1a4fde98ee17ae345cb5f6b5e2c27f5033e8ce79060200160405180910390a15050565b6001600160a01b0383163b1561107b57604051630a85bd0160e11b81526001600160a01b0384169063150b7a0290610f999088908890879087906004016118d3565b6020604051808303816000875af1925050508015610fd4575060408051601f3d908101601f19168201909252610fd191810190611910565b60015b61103d573d808015611002576040519150601f19603f3d011682016040523d82523d6000602084013e611007565b606091505b50805160000361103557604051633250574960e11b81526001600160a01b0385166004820152602401610523565b805160208201fd5b6001600160e01b03198116630a85bd0160e11b1461107957604051633250574960e11b81526001600160a01b0385166004820152602401610523565b505b5050505050565b606061108d82610c45565b5060006110a560408051602081019091526000815290565b905060008151116110c557604051806020016040528060008152506110f0565b806110cf84611261565b6040516020016110e092919061179e565b6040516020818303038152906040525b9392505050565b808061110b57506001600160a01b03821615155b156111cd57600061111b84610c45565b90506001600160a01b038316158015906111475750826001600160a01b0316816001600160a01b031614155b801561115a575061115881846109de565b155b156111835760405163a9fbf51f60e01b81526001600160a01b0384166004820152602401610523565b81156111cb5783856001600160a01b0316826001600160a01b03167f8c5be1e5ebec7d5bd14f71427d1e84f3dd0314c0f7b2291e5b200ac8c7c3b92560405160405180910390a45b505b5050600090815260046020526040902080546001600160a01b0319166001600160a01b0392909216919091179055565b6112088383836112f4565b6105a8576001600160a01b03831661123657604051637e27328960e01b815260048101829052602401610523565b60405163177e802f60e01b81526001600160a01b038316600482015260248101829052604401610523565b6060600061126e83611357565b600101905060008167ffffffffffffffff81111561128e5761128e6115e2565b6040519080825280601f01601f1916602001820160405280156112b8576020820181803683370190505b5090508181016020015b600019016f181899199a1a9b1b9c1cb0b131b232b360811b600a86061a8153600a85049450846112c257509392505050565b60006001600160a01b038316158015906109d65750826001600160a01b0316846001600160a01b0316148061132e575061132e84846109de565b806109d65750506000908152600460205260409020546001600160a01b03908116911614919050565b60008072184f03e93ff9f4daa797ed6e38ed64bf6a1f0160401b83106113965772184f03e93ff9f4daa797ed6e38ed64bf6a1f0160401b830492506040015b6d04ee2d6d415b85acef810000000083106113c2576d04ee2d6d415b85acef8100000000830492506020015b662386f26fc1000083106113e057662386f26fc10000830492506010015b6305f5e10083106113f8576305f5e100830492506008015b612710831061140c57612710830492506004015b6064831061141e576064830492506002015b600a831061041a5760010192915050565b80356001600160a01b038116811461144657600080fd5b919050565b60006020828403121561145d57600080fd5b6110f08261142f565b6001600160e01b031981168114610a4757600080fd5b60006020828403121561148e57600080fd5b81356110f081611466565b60005b838110156114b457818101518382015260200161149c565b50506000910152565b600081518084526114d5816020860160208601611499565b601f01601f19169290920160200192915050565b6020815260006110f060208301846114bd565b60006020828403121561150e57600080fd5b5035919050565b6000806040838503121561152857600080fd5b6115318361142f565b946020939093013593505050565b60008060006060848603121561155457600080fd5b61155d8461142f565b925061156b6020850161142f565b9150604084013590509250925092565b8015158114610a4757600080fd5b6000806040838503121561159c57600080fd5b6115a58361142f565b915060208301356115b58161157b565b809150509250929050565b600080604083850312156115d357600080fd5b50508035926020909101359150565b634e487b7160e01b600052604160045260246000fd5b6000806000806080858703121561160e57600080fd5b6116178561142f565b93506116256020860161142f565b925060408501359150606085013567ffffffffffffffff8082111561164957600080fd5b818701915087601f83011261165d57600080fd5b81358181111561166f5761166f6115e2565b604051601f8201601f19908116603f01168101908382118183101715611697576116976115e2565b816040528281528a60208487010111156116b057600080fd5b82602086016020830137600060208483010152809550505050505092959194509250565b600080604083850312156116e757600080fd5b6116f08361142f565b91506116fe6020840161142f565b90509250929050565b600181811c9082168061171b57607f821691505b60208210810361173b57634e487b7160e01b600052602260045260246000fd5b50919050565b60006020828403121561175357600080fd5b81516110f08161157b565b60006020828403121561177057600080fd5b5051919050565b60006001820161179757634e487b7160e01b600052601160045260246000fd5b5060010190565b600083516117b0818460208801611499565b8351908301906117c4818360208801611499565b01949350505050565b601f8211156105a857600081815260208120601f850160051c810160208610156117f45750805b601f850160051c820191505b8181101561107957828155600101611800565b815167ffffffffffffffff81111561182d5761182d6115e2565b6118418161183b8454611707565b846117cd565b602080601f831160018114611876576000841561185e5750858301515b600019600386901b1c1916600185901b178555611079565b600085815260208120601f198616915b828110156118a557888601518255948401946001909101908401611886565b50858210156118c35787850151600019600388901b60f8161c191681555b5050505050600190811b01905550565b6001600160a01b0385811682528416602082015260408101839052608060608201819052600090611906908301846114bd565b9695505050505050565b60006020828403121561192257600080fd5b81516110f08161146656fe697066733a2f2f796f75722d736e616b656e66742d6d657461646174612d757269a26469706673582212206e72cc8cd9996619659e21c646d395b4d5decb44fc45259a400f07700c718b7e64736f6c63430008140033",
  "linkReferences": {},
  "deployedLinkReferences": {}
}