{
  "_format": "hh-sol-artifact-1",
  "contractName": "MockMonToken",
  "sourceName": "contracts/MockMonToken.sol",
  "abi": [
    {
      "inputs": [],
      "stateMutability": "nonpayable",
      "type": "constructor"
    },
    {
      "inputs": [
        {
          "internalType": "address",
          "name": "spender",
          "type": "address"
        },
        {
          "internalType": "uint256",
          "name": "allowance",
          "type": "uint256"
        },
        {
          "internalType": "uint256",
          "name": "needed",
          "type": "uint256"
        }
      ],
      "name": "ERC20InsufficientAllowance",
      "type": "error"
    },
    {
      "inputs": [
        {
          "internalType": "address",
          "name": "sender",
          "type": "address"
        },
        {
          "internalType": "uint256",
          "name": "balance",
          "type": "uint256"
        },
        {
          "internalType": "uint256",
          "name": "needed",
          "type": "uint256"
        }
      ],
      "name": "ERC20InsufficientBalance",
      "type": "error"
    },
    {
      "inputs": [
        {
          "internalType": "address",
          "name": "approver",
          "type": "address"
        }
      ],
      "name": "ERC20InvalidApprover",
      "type": "error"
    },
    {
      "inputs": [
        {
          "internalType": "address",
          "name": "receiver",
          "type": "address"
        }
      ],
      "name": "ERC20InvalidReceiver",
      "type": "error"
    },
    {
      "inputs": [
        {
          "internalType": "address",
          "name": "sender",
          "type": "address"
        }
      ],
      "name": "ERC20InvalidSender",
      "type": "error"
    },
    {
      "inputs": [
        {
          "internalType": "address",
          "name": "spender",
          "type": "address"
        }
      ],
      "name": "ERC20InvalidSpender",
      "type": "error"
    },
    {
      "anonymous": false,
      "inputs": [
        {
          "indexed": true,
          "internalType": "address",
          "name": "owner",
          "type": "address"
        },
        {
          "indexed": true,
          "internalType": "address",
          "name": "spender",
          "type": "address"
        },
        {
          "indexed": false,
          "internalType": "uint256",
          "name": "value",
          "type": "uint256"
        }
      ],
      "name": "Approval",
      "type": "event"
    },
    {
      "anonymous": false,
      "inputs": [
        {
          "indexed": true,
          "internalType": "address",
          "name": "from",
          "type": "address"
        },
        {
          "indexed": true,
          "internalType": "address",
          "name": "to",
          "type": "address"
        },
        {
          "indexed": false,
          "internalType": "uint256",
          "name": "value",
          "type": "uint256"
        }
      ],
      "name": "Transfer",
      "type": "event"
    },
    {
      "inputs": [
        {
          "internalType": "address",
          "name": "owner",
          "type": "address"
        },
        {
          "internalType": "address",
          "name": "spender",
          "type": "address"
        }
      ],
      "name": "allowance",
      "outputs": [
        {
          "internalType": "uint256",
          "name": "",
          "type": "uint256"
        }
      ],
      "stateMutability": "view",
      "type": "function"
    },
    {
      "inputs": [
        {
          "internalType": "address",
          "name": "spender",
          "type": "address"
        },
        {
          "internalType": "uint256",
          "name": "value",
          "type": "uint256"
        }
      ],
      "name": "approve",
      "outputs": [
        {
          "internalType": "bool",
          "name": "",
          "type": "bool"
        }
      ],
      "stateMutability": "nonpayable",
      "type": "function"
    },
    {
      "inputs": [
        {
          "internalType": "address",
          "name": "account",
          "type": "address"
        }
      ],
      "name": "balanceOf",
      "outputs": [
        {
          "internalType": "uint256",
          "name": "",
          "type": "uint256"
        }
      ],
      "stateMutability": "view",
      "type": "function"
    },
    {
      "inputs": [],
      "name": "decimals",
      "outputs": [
        {
          "internalType": "uint8",
          "name": "",
          "type": "uint8"
        }
      ],
      "stateMutability": "view",
      "type": "function"
    },
    {
      "inputs": [],
      "name": "faucet",
      "outputs": [],
      "stateMutability": "nonpayable",
      "type": "function"
    },
    {
      "inputs": [
        {
          "internalType": "address",
          "name": "to",
          "type": "address"
        },
        {
          "internalType": "uint256",
          "name": "amount",
          "type": "uint256"
        }
      ],
      "name": "mint",
      "outputs": [],
      "stateMutability": "nonpayable",
      "type": "function"
    },
    {
      "inputs": [],
      "name": "name",
      "outputs": [
        {
          "internalType": "string",
          "name": "",
          "type": "string"
        }
      ],
      "stateMutability": "view",
      "type": "function"
    },
    {
      "inputs": [],
      "name": "symbol",
      "outputs": [
        {
          "internalType": "string",
          "name": "",
          "type": "string"
        }
      ],
      "stateMutability": "view",
      "type": "function"
    },
    {
      "inputs": [],
      "name": "totalSupply",
      "outputs": [
        {
          "internalType": "uint256",
          "name": "",
          "type": "uint256"
        }
      ],
      "stateMutability": "view",
      "type": "function"
    },
    {
      "inputs": [
        {
          "internalType": "address",
          "name": "to",
          "type": "address"
        },
        {
          "internalType": "uint256",
          "name": "value",
          "type": "uint256"
        }
      ],
      "name": "transfer",
      "outputs": [
        {
          "internalType": "bool",
          "name": "",
          "type": "bool"
        }
      ],
      "stateMutability": "nonpayable",
      "type": "function"
    },
    {
      "inputs": [
        {
          "internalType": "address",
          "name": "from",
          "type": "address"
        },
        {
          "internalType": "address",
          "name": "to",
          "type": "address"
        },
        {
          "internalType": "uint256",
          "name": "value",
          "type": "uint256"
        }
      ],
      "name": "transferFrom",
      "outputs": [
        {
          "internalType": "bool",
          "name": "",
          "type": "bool"
        }
      ],
      "stateMutability": "nonpayable",
      "type": "function"
    }
  ],
  "bytecode": "0x60806040523480156200001157600080fd5b506040518060400160405280601081526020016f26b7b1b59026b7b730b2102a37b5b2b760811b8152506040518060400160405280600381526020016226a7a760e91b8152508160039081620000689190620002b6565b506004620000778282620002b6565b505050620000963369d3c21bcecceda10000006200009c60201b60201c565b620003aa565b6001600160a01b038216620000cc5760405163ec442f0560e01b8152600060048201526024015b60405180910390fd5b620000da60008383620000de565b5050565b6001600160a01b0383166200010d57806002600082825462000101919062000382565b90915550620001819050565b6001600160a01b03831660009081526020819052604090205481811015620001625760405163391434e360e21b81526001600160a01b03851660048201526024810182905260448101839052606401620000c3565b6001600160a01b03841660009081526020819052604090209082900390555b6001600160a01b0382166200019f57600280548290039055620001be565b6001600160a01b03821660009081526020819052604090208054820190555b816001600160a01b0316836001600160a01b03167fddf252ad1be2c89b69c2b068fc378daa952ba7f163c4a11628f55a4df523b3ef836040516200020491815260200190565b60405180910390a3505050565b634e487b7160e01b600052604160045260246000fd5b600181811c908216806200023c57607f821691505b6020821081036200025d57634e487b7160e01b600052602260045260246000fd5b50919050565b601f821115620002b157600081815260208120601f850160051c810160208610156200028c5750805b601f850160051c820191505b81811015620002ad5782815560010162000298565b5050505b505050565b81516001600160401b03811115620002d257620002d262000211565b620002ea81620002e3845462000227565b8462000263565b602080601f831160018114620003225760008415620003095750858301515b600019600386901b1c1916600185901b178555620002ad565b600085815260208120601f198616915b82811015620003535788860151825594840194600190910190840162000332565b5085821015620003725787850151600019600388901b60f8161c191681555b5050505050600190811b01905550565b80820180821115620003a457634e487b7160e01b600052601160045260246000fd5b92915050565b6107ad80620003ba6000396000f3fe608060405234801561001057600080fd5b50600436106100a95760003560e01c806340c10f191161007157806340c10f191461012357806370a082311461013857806395d89b4114610161578063a9059cbb14610169578063dd62ed3e1461017c578063de5f72fd146101b557600080fd5b806306fdde03146100ae578063095ea7b3146100cc57806318160ddd146100ef57806323b872dd14610101578063313ce56714610114575b600080fd5b6100b66101bd565b6040516100c391906105f7565b60405180910390f35b6100df6100da366004610661565b61024f565b60405190151581526020016100c3565b6002545b6040519081526020016100c3565b6100df61010f36600461068b565b610269565b604051601281526020016100c3565b610136610131366004610661565b61028d565b005b6100f36101463660046106c7565b6001600160a01b031660009081526020819052604090205490565b6100b661029b565b6100df610177366004610661565b6102aa565b6100f361018a3660046106e9565b6001600160a01b03918216600090815260016020908152604080832093909416825291909152205490565b6101366102b8565b6060600380546101cc9061071c565b80601f01602080910402602001604051908101604052809291908181526020018280546101f89061071c565b80156102455780601f1061021a57610100808354040283529160200191610245565b820191906000526020600020905b81548152906001019060200180831161022857829003601f168201915b5050505050905090565b60003361025d8185856102cd565b60019150505b92915050565b6000336102778582856102df565b610282858585610363565b506001949350505050565b61029782826103c2565b5050565b6060600480546101cc9061071c565b60003361025d818585610363565b6102cb3368056bc75e2d631000006103c2565b565b6102da83838360016103f8565b505050565b6001600160a01b0383811660009081526001602090815260408083209386168352929052205460001981101561035d578181101561034e57604051637dc7a0d960e11b81526001600160a01b038416600482015260248101829052604481018390526064015b60405180910390fd5b61035d848484840360006103f8565b50505050565b6001600160a01b03831661038d57604051634b637e8f60e11b815260006004820152602401610345565b6001600160a01b0382166103b75760405163ec442f0560e01b815260006004820152602401610345565b6102da8383836104cd565b6001600160a01b0382166103ec5760405163ec442f0560e01b815260006004820152602401610345565b610297600083836104cd565b6001600160a01b0384166104225760405163e602df0560e01b815260006004820152602401610345565b6001600160a01b03831661044c57604051634a1406b160e11b815260006004820152602401610345565b6001600160a01b038085166000908152600160209081526040808320938716835292905220829055801561035d57826001600160a01b0316846001600160a01b03167f8c5be1e5ebec7d5bd14f71427d1e84f3dd0314c0f7b2291e5b200ac8c7c3b925846040516104bf91815260200190565b60405180910390a350505050565b6001600160a01b0383166104f85780600260008282546104ed9190610756565b9091555061056a9050565b6001600160a01b0383166000908152602081905260409020548181101561054b5760405163391434e360e21b81526001600160a01b03851660048201526024810182905260448101839052606401610345565b6001600160a01b03841660009081526020819052604090209082900390555b6001600160a01b038216610586576002805482900390556105a5565b6001600160a01b03821660009081526020819052604090208054820190555b816001600160a01b0316836001600160a01b03167fddf252ad1be2c89b69c2b068fc378daa952ba7f163c4a11628f55a4df523b3ef836040516105ea91815260200190565b60405180910390a3505050565b600060208083528351808285015260005b8181101561062457858101830151858201604001528201610608565b506000604082860101526040601f19601f8301168501019250505092915050565b80356001600160a01b038116811461065c57600080fd5b919050565b6000806040838503121561067457600080fd5b61067d83610645565b946020939093013593505050565b6000806000606084860312156106a057600080fd5b6106a984610645565b92506106b760208501610645565b9150604084013590509250925092565b6000602082840312156106d957600080fd5b6106e282610645565b9392505050565b600080604083850312156106fc57600080fd5b61070583610645565b915061071360208401610645565b90509250929050565b600181811c9082168061073057607f821691505b60208210810361075057634e487b7160e01b600052602260045260246000fd5b50919050565b8082018082111561026357634e487b7160e01b600052601160045260246000fdfea26469706673582212207563af9198d48093e39e9d279b694ae95e8258959f3ec8086f55f2462f8393d864736f6c63430008140033",
  "linkReferences": {},
  "deployedLinkReferences": {}
}